{
  "contractName": "Ballot",
  "abi": [
    {
      "inputs": [
        {
          "internalType": "bytes32[]",
          "name": "proposalNames",
          "type": "bytes32[]"
        }
      ],
      "stateMutability": "nonpayable",
      "type": "constructor"
    },
    {
      "inputs": [],
      "name": "chairperson",
      "outputs": [
        {
          "internalType": "address",
          "name": "",
          "type": "address"
        }
      ],
      "stateMutability": "view",
      "type": "function",
      "constant": true
    },
    {
      "inputs": [
        {
          "internalType": "uint256",
          "name": "",
          "type": "uint256"
        }
      ],
      "name": "proposals",
      "outputs": [
        {
          "internalType": "bytes32",
          "name": "name",
          "type": "bytes32"
        },
        {
          "internalType": "uint256",
          "name": "voteCount",
          "type": "uint256"
        }
      ],
      "stateMutability": "view",
      "type": "function",
      "constant": true
    },
    {
      "inputs": [
        {
          "internalType": "address",
          "name": "",
          "type": "address"
        }
      ],
      "name": "voters",
      "outputs": [
        {
          "internalType": "uint256",
          "name": "weight",
          "type": "uint256"
        },
        {
          "internalType": "bool",
          "name": "voted",
          "type": "bool"
        },
        {
          "internalType": "uint256",
          "name": "vote",
          "type": "uint256"
        }
      ],
      "stateMutability": "view",
      "type": "function",
      "constant": true
    },
    {
      "inputs": [],
      "name": "getProposalCount",
      "outputs": [
        {
          "internalType": "uint256",
          "name": "",
          "type": "uint256"
        }
      ],
      "stateMutability": "view",
      "type": "function",
      "constant": true
    },
    {
      "inputs": [
        {
          "internalType": "address",
          "name": "voter",
          "type": "address"
        }
      ],
      "name": "giveRightToVote",
      "outputs": [],
      "stateMutability": "nonpayable",
      "type": "function"
    },
    {
      "inputs": [
        {
          "internalType": "uint256",
          "name": "proposal",
          "type": "uint256"
        }
      ],
      "name": "vote",
      "outputs": [],
      "stateMutability": "nonpayable",
      "type": "function"
    },
    {
      "inputs": [],
      "name": "winningProposal",
      "outputs": [
        {
          "internalType": "uint256",
          "name": "winningProposal_",
          "type": "uint256"
        }
      ],
      "stateMutability": "view",
      "type": "function",
      "constant": true
    },
    {
      "inputs": [],
      "name": "winnerName",
      "outputs": [
        {
          "internalType": "bytes32",
          "name": "winnerName_",
          "type": "bytes32"
        }
      ],
      "stateMutability": "view",
      "type": "function",
      "constant": true
    }
  ],
  "bytecode": "0x60806040523480156200001157600080fd5b506040516200102438038062001024833981810160405281019062000037919062000342565b336000806101000a81548173ffffffffffffffffffffffffffffffffffffffff021916908373ffffffffffffffffffffffffffffffffffffffff16021790555060018060008060009054906101000a900473ffffffffffffffffffffffffffffffffffffffff1673ffffffffffffffffffffffffffffffffffffffff1673ffffffffffffffffffffffffffffffffffffffff1681526020019081526020016000206000018190555060005b81518110156200017657600260405180604001604052808484815181106200010f576200010e62000393565b5b60200260200101518152602001600081525090806001815401808255809150506001900390600052602060002090600202016000909190919091506000820151816000015560208201518160010155505080806200016d90620003fb565b915050620000e2565b505062000448565b6000604051905090565b600080fd5b600080fd5b600080fd5b6000601f19601f8301169050919050565b7f4e487b7100000000000000000000000000000000000000000000000000000000600052604160045260246000fd5b620001e28262000197565b810181811067ffffffffffffffff82111715620002045762000203620001a8565b5b80604052505050565b6000620002196200017e565b9050620002278282620001d7565b919050565b600067ffffffffffffffff8211156200024a5762000249620001a8565b5b602082029050602081019050919050565b600080fd5b6000819050919050565b620002758162000260565b81146200028157600080fd5b50565b60008151905062000295816200026a565b92915050565b6000620002b2620002ac846200022c565b6200020d565b90508083825260208201905060208402830185811115620002d857620002d76200025b565b5b835b81811015620003055780620002f0888262000284565b845260208401935050602081019050620002da565b5050509392505050565b600082601f83011262000327576200032662000192565b5b8151620003398482602086016200029b565b91505092915050565b6000602082840312156200035b576200035a62000188565b5b600082015167ffffffffffffffff8111156200037c576200037b6200018d565b5b6200038a848285016200030f565b91505092915050565b7f4e487b7100000000000000000000000000000000000000000000000000000000600052603260045260246000fd5b7f4e487b7100000000000000000000000000000000000000000000000000000000600052601160045260246000fd5b6000819050919050565b60006200040882620003f1565b91507fffffffffffffffffffffffffffffffffffffffffffffffffffffffffffffffff82036200043d576200043c620003c2565b5b600182019050919050565b610bcc80620004586000396000f3fe608060405234801561001057600080fd5b50600436106100885760003560e01c80639e7b8d611161005b5780639e7b8d6114610116578063a3ec138d14610132578063c08cc02d14610164578063e2ba53f01461018257610088565b80630121b93f1461008d578063013cf08b146100a95780632e4176cf146100da578063609ff1bd146100f8575b600080fd5b6100a760048036038101906100a2919061071a565b6101a0565b005b6100c360048036038101906100be919061071a565b6102e6565b6040516100d192919061076f565b60405180910390f35b6100e261031a565b6040516100ef91906107d9565b60405180910390f35b61010061033e565b60405161010d91906107f4565b60405180910390f35b610130600480360381019061012b919061083b565b610479565b005b61014c6004803603810190610147919061083b565b610630565b60405161015b93929190610883565b60405180910390f35b61016c610667565b60405161017991906107f4565b60405180910390f35b61018a610674565b60405161019791906108ba565b60405180910390f35b6000600160003373ffffffffffffffffffffffffffffffffffffffff1673ffffffffffffffffffffffffffffffffffffffff1681526020019081526020016000209050600081600001540361022a576040517f08c379a000000000000000000000000000000000000000000000000000000000815260040161022190610932565b60405180910390fd5b8060010160009054906101000a900460ff161561027c576040517f08c379a00000000000000000000000000000000000000000000000000000000081526004016102739061099e565b60405180910390fd5b60018160010160006101000a81548160ff0219169083151502179055508181600201819055508060000154600283815481106102bb576102ba6109be565b5b906000526020600020906002020160010160008282546102db9190610a1c565b925050819055505050565b600281815481106102f657600080fd5b90600052602060002090600202016000915090508060000154908060010154905082565b60008054906101000a900473ffffffffffffffffffffffffffffffffffffffff1681565b6000806000905060008060005b60028054905081101561043a57836002828154811061036d5761036c6109be565b5b90600052602060002090600202016001015411156103b95760028181548110610399576103986109be565b5b906000526020600020906002020160010154935080925060009150610427565b83600282815481106103ce576103cd6109be565b5b90600052602060002090600202016001015414801561041257506000600282815481106103fe576103fd6109be565b5b906000526020600020906002020160010154115b1561042657818061042290610a50565b9250505b5b808061043290610a50565b91505061034b565b50600081111561046f577fffffffffffffffffffffffffffffffffffffffffffffffffffffffffffffffff9350505050610476565b8193505050505b90565b60008054906101000a900473ffffffffffffffffffffffffffffffffffffffff1673ffffffffffffffffffffffffffffffffffffffff163373ffffffffffffffffffffffffffffffffffffffff1614610507576040517f08c379a00000000000000000000000000000000000000000000000000000000081526004016104fe90610b0a565b60405180910390fd5b600160008273ffffffffffffffffffffffffffffffffffffffff1673ffffffffffffffffffffffffffffffffffffffff16815260200190815260200160002060010160009054906101000a900460ff1615610597576040517f08c379a000000000000000000000000000000000000000000000000000000000815260040161058e90610b76565b60405180910390fd5b6000600160008373ffffffffffffffffffffffffffffffffffffffff1673ffffffffffffffffffffffffffffffffffffffff16815260200190815260200160002060000154146105e657600080fd5b60018060008373ffffffffffffffffffffffffffffffffffffffff1673ffffffffffffffffffffffffffffffffffffffff1681526020019081526020016000206000018190555050565b60016020528060005260406000206000915090508060000154908060010160009054906101000a900460ff16908060020154905083565b6000600280549050905090565b60008061067f61033e565b90507fffffffffffffffffffffffffffffffffffffffffffffffffffffffffffffffff81036106b25760009150506106dc565b600281815481106106c6576106c56109be565b5b9060005260206000209060020201600001549150505b90565b600080fd5b6000819050919050565b6106f7816106e4565b811461070257600080fd5b50565b600081359050610714816106ee565b92915050565b6000602082840312156107305761072f6106df565b5b600061073e84828501610705565b91505092915050565b6000819050919050565b61075a81610747565b82525050565b610769816106e4565b82525050565b60006040820190506107846000830185610751565b6107916020830184610760565b9392505050565b600073ffffffffffffffffffffffffffffffffffffffff82169050919050565b60006107c382610798565b9050919050565b6107d3816107b8565b82525050565b60006020820190506107ee60008301846107ca565b92915050565b60006020820190506108096000830184610760565b92915050565b610818816107b8565b811461082357600080fd5b50565b6000813590506108358161080f565b92915050565b600060208284031215610851576108506106df565b5b600061085f84828501610826565b91505092915050565b60008115159050919050565b61087d81610868565b82525050565b60006060820190506108986000830186610760565b6108a56020830185610874565b6108b26040830184610760565b949350505050565b60006020820190506108cf6000830184610751565b92915050565b600082825260208201905092915050565b7f486173206e6f20726967687420746f20766f7465000000000000000000000000600082015250565b600061091c6014836108d5565b9150610927826108e6565b602082019050919050565b6000602082019050818103600083015261094b8161090f565b9050919050565b7f416c726561647920766f7465642e000000000000000000000000000000000000600082015250565b6000610988600e836108d5565b915061099382610952565b602082019050919050565b600060208201905081810360008301526109b78161097b565b9050919050565b7f4e487b7100000000000000000000000000000000000000000000000000000000600052603260045260246000fd5b7f4e487b7100000000000000000000000000000000000000000000000000000000600052601160045260246000fd5b6000610a27826106e4565b9150610a32836106e4565b9250828201905080821115610a4a57610a496109ed565b5b92915050565b6000610a5b826106e4565b91507fffffffffffffffffffffffffffffffffffffffffffffffffffffffffffffffff8203610a8d57610a8c6109ed565b5b600182019050919050565b7f4f6e6c79206368616972706572736f6e2063616e20676976652072696768742060008201527f746f20766f74652e000000000000000000000000000000000000000000000000602082015250565b6000610af46028836108d5565b9150610aff82610a98565b604082019050919050565b60006020820190508181036000830152610b2381610ae7565b9050919050565b7f54686520766f74657220616c726561647920766f7465642e0000000000000000600082015250565b6000610b606018836108d5565b9150610b6b82610b2a565b602082019050919050565b60006020820190508181036000830152610b8f81610b53565b905091905056fea2646970667358221220e674b76090aabf206a1e49b7009a4f738a6251cc2bc0139ee08e6919a4c8fd3864736f6c63430008130033",
  "immutableReferences": {},
  "source": "// SPDX-License-Identifier: GPL-3.0\r\npragma solidity >=0.4.22 <0.9.0;\r\n\r\n/// @title Voting without delegation with tiebreak.\r\ncontract Ballot {\r\n    struct Voter {\r\n        uint weight;\r\n        bool voted;\r\n        uint vote;\r\n    }\r\n\r\n    struct Proposal {\r\n        bytes32 name;\r\n        uint voteCount;\r\n    }\r\n\r\n    address public chairperson;\r\n    mapping(address => Voter) public voters;\r\n    Proposal[] public proposals;\r\n\r\n    constructor(bytes32[] memory proposalNames) {\r\n        chairperson = msg.sender;\r\n        voters[chairperson].weight = 1;\r\n\r\n        for (uint i = 0; i < proposalNames.length; i++) {\r\n            proposals.push(Proposal({\r\n                name: proposalNames[i],\r\n                voteCount: 0\r\n            }));\r\n        }\r\n    }\r\n\r\n    function getProposalCount() public view returns (uint256) {\r\n        return proposals.length;\r\n    }\r\n\r\n    function giveRightToVote(address voter) external {\r\n        require(msg.sender == chairperson, \"Only chairperson can give right to vote.\");\r\n        require(!voters[voter].voted, \"The voter already voted.\");\r\n        require(voters[voter].weight == 0);\r\n        voters[voter].weight = 1;\r\n    }\r\n\r\n    function vote(uint proposal) external {\r\n        Voter storage sender = voters[msg.sender];\r\n        require(sender.weight != 0, \"Has no right to vote\");\r\n        require(!sender.voted, \"Already voted.\");\r\n        sender.voted = true;\r\n        sender.vote = proposal;\r\n        proposals[proposal].voteCount += sender.weight;\r\n    }\r\n\r\n    function winningProposal() public view returns (uint winningProposal_) {\r\n        uint winningVoteCount = 0;\r\n        uint winningProposalIndex = 0;\r\n        uint tieCount = 0;\r\n\r\n        for (uint p = 0; p < proposals.length; p++) {\r\n            if (proposals[p].voteCount > winningVoteCount) {\r\n                winningVoteCount = proposals[p].voteCount;\r\n                winningProposalIndex = p;\r\n                tieCount = 0; // Reset tie count when a new winner is found.\r\n            } else if (proposals[p].voteCount == winningVoteCount && proposals[p].voteCount > 0) {\r\n                tieCount++; // Increment tie count if a proposal matches the current winning vote count.\r\n            }\r\n        }\r\n\r\n        if (tieCount > 0) {\r\n            // Tie detected, return a large number to signify failure.\r\n            return type(uint).max; // or any other value to show a failed vote.\r\n        } else {\r\n            return winningProposalIndex;\r\n        }\r\n    }\r\n\r\n    function winnerName() external view returns (bytes32 winnerName_) {\r\n        uint winningIndex = winningProposal();\r\n\r\n        if (winningIndex == type(uint).max) {\r\n            // Tie occurred, return an empty bytes32 to signify failure.\r\n            return bytes32(\"\");\r\n        } else {\r\n            winnerName_ = proposals[winningIndex].name;\r\n        }\r\n    }\r\n}",
  "sourcePath": "C:\\Users\\vedro\\Desktop\\Faks\\Diplomski Rad\\Smart Contract\\Web App\\voting-dapp\\contracts\\contracts\\Ballot.sol",
  "compiler": {
    "name": "solc",
    "version": "0.8.19+commit.7dd6d404.Emscripten.clang"
  },
  "schemaVersion": "3.4.16",
  "updatedAt": "2025-04-20T16:31:28.858Z",
  "networkType": "ethereum",
  "devdoc": {
    "kind": "dev",
    "methods": {},
    "title": "Voting without delegation with tiebreak.",
    "version": 1
  },
  "userdoc": {
    "kind": "user",
    "methods": {},
    "version": 1
  }
}